:100000000C9434000C9451000C9451000C94510049
:100010000C9451000C9451000C9451000C9451001C
:100020000C9451000C9451000C9451000C9451000C
:100030000C9451000C9451000C9451000C945100FC
:100040000C9451000C9451000C9451000C945100EC
:100050000C9451000C9451000C9451000C945100DC
:100060000C9451000C94510011241FBECFEFD8E026
:10007000DEBFCDBF11E0A0E0B1E0E2E0F1E002C000
:1000800005900D92A030B107D9F721E0A0E0B1E0D2
:1000900001C01D92A030B207E1F70E9453000C94FA
:1000A0007F000C9400008FEF8AB981E08BB990E05B
:1000B00021E030E0913091F48BB186958BB94FEF10
:1000C00051EE84E0415050408040E1F700C0000014
:1000D0008BB1922F813071F7932FECCF8BB1880FBA
:1000E0008BB94FEF51EE84E0415050408040E1F732
:1000F00000C000008BB18038E9F6922FDBCFF89476
:02010000FFCF2F
:00000001FF
