:020000020000FC
:0200000016C028
:10002C0010C018E01EBF1FE51DBF15E013BF11E087
:10003C0019BF1FEF11BB00E04FEF3ED07894A8958D
:10004C00FECF423031F407D0209522BB03954FEF01
:10005C001895439518950030F9F00130F1F0023005
:10006C00E9F00330E1F00430D9F00530D1F006307E
:10007C00C9F00730C1F00830B9F00930B1F00A30DE
:10008C00A9F00B30A1F00C3099F00D3091F00E303E
:10009C0089F00F3081F008950FC010C011C012C04C
:1000AC0013C014C015C016C017C018C019C01AC090
:1000BC001BC01CC01DC01EC02FEB089526E8089560
:1000CC002BED08952FEC089526EE08952DEE08954E
:1000DC002DEF089527E808952FEF08952FEE08953A
:1000EC0027E708952CE7089529E308952EE5089550
:0A00FC0029E7089521E70FEF0895AA
:00000001FF
