:100000000EC049C014C013C012C011C010C00FC030
:100010000EC00DC00CC00BC00AC009C008C011241E
:100020001FBECFE5D1E0DEBFCDBF32D089C0E8CF63
:10003000B89ABA98C29A84B3836084BB83B781604C
:1000400083BF8AB583688ABD19BC85B7826085BFC6
:100050008BB780648BBF85B7806285BF85B7877E8D
:1000600085BF80B5896080BD37984798A89584B7CB
:10007000877F84BF81B5886181BD11BC7894089564
:1000800086B38695869591E08927817090E00895E2
:10009000CFDF8895FECF1F920F920FB60F921124DB
:1000A0002F933F934F935F936F937F938F939F9380
:1000B000AF93BF93EF93FF938FE493EC0197F1F726
:1000C00000C00000DDDF892BC1F0DADF892BE1F011
:1000D000E7E8F3E13197F1F700C0000089B58F3F01
:1000E00019F089B58F5F07C019BCE9E6F8E13197CF
:1000F000F1F700C0000089BDE8CF89B5811103C0C8
:100100008FEF89BD01C019BCB29BFECFFFE926E885
:1001100081E0F15020408040E1F700C00000FF91F5
:10012000EF91BF91AF919F918F917F916F915F916F
:100130004F913F912F910F900FBE0F901F901895E8
:04014000F894FFCF61
:00000001FF
