S0170000435F3030355F4D616E75616C50574D2E7372656325
S11300000C9434000C943E000C943E000C943E007E
S11300100C943E000C943E000C943E000C943E0064
S11300200C943E000C943E000C943E000C943E0054
S11300300C943E000C943E000C943E000C943E0044
S11300400C943E000C943E000C943E000C943E0034
S11300500C943E000C943E000C943E000C943E0024
S11300600C943E000C943E0011241FBECFEFD8E048
S1130070DEBFCDBF0E9440000C94A2000C9400008F
S11300808FEF8AB9EAE7F0E080818068808380811D
S113009083608083ECE7F0E080818E7F80838081C1
S11300A080628083EEE7F0E08081816080830E943B
S11300B097000CE710E0DD24DA94E12C6894FF2427
S11300C0F2F8F8018081887F8083CAE00E9497005B
S11300D0D82FC150D9F7F8018081816080830E94B4
S11300E09700F80180818E7F808380818260808385
S11300F00E949700DBB8DD23A9F080E000008F5F49
S1130100D813FCCF1BB8C7018D1B9109181619060B
S1130110C4F620E000002F5F422F50E04817590733
S113012084F6F8CF1BB8C7018D1B9109F2CFEAE71B
S1130130F0E0808180648083808186FDFDCF8091A2
S10B014079000895F894FFCF43
S9030000FC
