S0180000435F3030375F537461676572697365722E737265635B
S11300000C9434000C943E000C943E000C943E007E
S11300100C943E000C943E000C943E000C943E0064
S11300200C943E000C943E000C943E000C943E0054
S11300300C943E000C943E000C943E000C943E0044
S11300400C943E000C943E000C943E000C943E0034
S11300500C943E000C943E000C943E000C943E0024
S11300600C943E000C943E0011241FBECFEFD8E048
S1130070DEBFCDBF0E9440000C94B8000C94000079
S11300808AB180668AB9239A83EA84BD81E085BDFA
S113009093E89093B0008093B10080917A008068D7
S11300A080937A0080917A00836080937A008091B3
S11300B07C008E7F80937C0080917C0080628093A2
S11300C07C0080917E00816080937E000E94AC0061
S11300D080917C00887F80937C00C4E1D0E00E9402
S11300E0AC00082F8FE99FE00197F1F700C00000F2
S11300F02197A9F780917C00887F80937C00809170
S11301007C00816080937C00C4E1D0E00E94AC005C
S1130110182FEFE9FFE03197F1F700C000002197B5
S1130120A9F780917C008E7F80937C0080917C0075
S1130130826080937C00C4E1D0E00E94AC00EFE9CF
S1130140FFE03197F1F700C000002197B1F707BD38
S113015018BD8093B300BCCF80917A0080648093F3
S11301607A0080917A0086FDFCCF80917900089511
S1070170F894FFCF2D
S9030000FC
