S0160000435F3030345F416E616C6F67494F2E737265638F
S11300000C9434000C943E000C943E000C943E007E
S11300100C943E000C943E000C943E000C943E0064
S11300200C943E000C943E000C943E000C943E0054
S11300300C943E000C943E000C943E000C943E0044
S11300400C943E000C943E000C943E000C943E0034
S11300500C943E000C943E000C943E000C943E0024
S11300600C943E000C943E0011241FBECFEFD8E048
S1130070DEBFCDBF0E9440000C946B000C940000C6
S11300808FEF8AB9EAE7F0E080818068808380811D
S113009083608083CCE7D0E088818E7F88838881E9
S11300A080628883EEE7F0E08081816080830E9433
S11300B060008881887F88830E9460008BB9FCCFB0
S11300C0EAE7F0E0808180648083808186FDFDCF53
S10D00D0809179000895F894FFCFA1
S9030000FC
