S0140000435F3030355F54696D6572732E7372656306
S11300000C9434000C9446000C9446000C94460066
S11300100C9446000C9446000C9446000C94460044
S11300200C9446000C9446000C9446000C94460034
S11300300C9446000C9446000C9446000C94460024
S11300400C9457000C9446000C9446000C94460003
S11300500C9446000C9446000C9446000C94460004
S11300600C9446000C94460011241FBECFEFD8E038
S1130070DEBFCDBF21E0A0E0B1E001C01D92A230FF
S1130080B207E1F70E944F000C947D000C9400002D
S113009014BC81E085BD80936E0016BC08958FEF7B
S11300A08AB9589A0E94480078940000FECF1F92A3
S11300B00F920FB60F9211242F938F939F938091D9
S11300C0000190910101853224EF920730F40196EA
S11300D0909301018093000108C09BB182E08927BD
S11300E08BB910920101109200019F918F912F9171
S11100F00F900FBE0F901F901895F894FFCF3D
S9030000FC
