S01A0000435F3030335F4F766572666C6F77546573742E7372656382
S11300000C9434000C943E000C943E000C943E007E
S11300100C943E000C943E000C943E000C943E0064
S11300200C943E000C943E000C943E000C943E0054
S11300300C943E000C943E000C943E000C943E0044
S11300400C943E000C943E000C943E000C943E0034
S11300500C943E000C943E000C943E000C943E0024
S11300600C943E000C943E0011241FBECFEFD8E048
S1130070DEBFCDBF0E9440000C944D000C940000E4
S11300808FEF8AB91BB88BB18F5F8BB98FE493EC78
S11100900197F1F700C00000F6CFF894FFCFFF
S9030000FC
