:100000000C9434000C9451000C9451000C94510049
:100010000C9451000C9451000C9451000C9451001C
:100020000C9451000C9451000C9451000C9451000C
:100030000C9451000C9451000C9451000C945100FC
:100040000C9451000C9451000C9451000C945100EC
:100050000C9451000C9451000C9451000C945100DC
:100060000C9451000C94510011241FBECFEFD8E026
:10007000DEBFCDBF11E0A0E0B1E0E8EFF0E002C0EC
:1000800005900D92A030B107D9F721E0A0E0B1E0D2
:1000900001C01D92A030B207E1F70E9453000C94FA
:1000A0007A000C9400008FEF8AB98FE193E00197FA
:1000B000F1F700C0000081E08BB980E0882341F0B7
:1000C0008BB186958BB99BB181E0913049F407C023
:1000D0008BB1880F8BB99BB181E0903809F080E03B
:1000E0009FEF23ED30E3915020403040E1F700C016
:0800F0000000E4CFF894FFCFFB
:00000001FF
