S0110000435F3030365F50574D2E7372656388
S11300000C9443000C944D000C944D000C944D0042
S11300100C944D000C944D000C944D000C944D0028
S11300200C944D000C944D000C944D000C944D0018
S11300300C944D000C944D000C944D000C944D0008
S11300400C944D000C944D000C944D000C944D00F8
S11300500C944D000C944D000C944D000C944D00E8
S11300600C944D000C944D0005A84CCDB2D44EB95F
S11300703836A9020C50B9918688083CA6AAAA2A47
S1130080BE000000803F11241FBECFEFD8E0DEBFCA
S1130090CDBF0E94B4000C94DD020C940000A12C8E
S11300A0B12CC12CD12C03EB10E0EA2CFB2CDC2D61
S11300B0CD2D6E2D7F2D8D2F9C2F0E944D0220E083
S11300C030E04FE753E40E94E0010E94350167BD30
S11300D022E93AE046E050E46E2D7F2D8D2F9C2FCF
S11300E00E94C4000E944D0220E030E04FE753E438
S11300F00E94E0010E94350168BD22E93AE046E829
S113010050E46E2D7F2D8D2F9C2F0E94C4000E94E1
S11301104D0220E030E04FE753E40E94E0010E94EA
S11301203501F8016083FFEF21EE84E0F1502040B7
S11301308040E1F700C0000025E33AEF4EE85CE3BD
S11301406E2D7F2D8D2F9C2F0E94C400E62EF72E3E
S1130150D82FC92F22ED33E54BE752E40E9430013A
S113016088230CF4A6CFA1CF8AB180668AB9239ADA
S113017083EA84BD81E085BD93E89093B0008093C9
S1130180B1000E944F005058BB27AA270E94DB00F1
S11301900C94A6010E94980138F00E949F0120F05F
S11301A039F49F3F19F426F40C9495010EF4E0956C
S11301B0E7FB0C948F01E92F0E94B70158F3BA179B
S11301C0620773078407950720F079F4A6F50C9469
S11301D0D9010EF4E0950B2EBA2FA02D0B01B90115
S11301E090010C01CA01A0011124FF27591B99F0A9
S11301F0593F50F4503E68F11A16F040A22F232FB5
S1130200342F4427585FF3CF469537952795A79504
S1130210F0405395C9F77EF41F16BA0B620B730BAB
S1130220840BBAF09150A1F0FF0FBB1F661F771F1C
S1130230881FC2F70EC0BA0F621F731F841F48F4D1
S1130240879577956795B795F7959E3F08F0B0CF5A
S11302509395880F08F09927EE0F97958795089541
S11302600E946B0108F481E008950E943C016894A7
S1130270B1110C94DA0108950E94BF0188F09F57D0
S113028098F0B92F9927B751B0F0E1F0660F771FB6
S1130290881F991F1AF0BA95C9F714C0B13091F0AC
S11302A00E94D901B1E008950C94D901672F782FE9
S11302B08827B85F39F0B93FCCF386957795679571
S11302C0B395D9F73EF490958095709561957F4FDD
S11302D08F4F9F4F0895990F0008550FAA0BE0E820
S11302E0FEEF16161706E807F907C0F012161306F4
S11302F0E407F50798F0621B730B840B950B39F434
S11303000A2661F0232B242B252B21F408950A2699
S113031009F4A140A6958FEF811D811D089597F9D9
S11303209F6780E870E060E008959FEF80EC089597
S113033000240A94161617061806090608950024C0
S11303400A9412161306140605060895092E03943A
S1130350000C11F4882352F0BB0F40F4BF2B11F4AE
S113036060FF04C06F5F7F4F8F4F9F4F089557FD0D
S11303709058440F551F59F05F3F71F04795880F0F
S113038097FB991F61F09F3F79F0879508951216A6
S113039013061406551FF2CF4695F1DF08C0161652
S11303A017061806991FF1CF869571056105089403
S11303B00895E894BB2766277727CB0197F908951A
S11303C00E94F3010C94A6010E94980138F00E9447
S11303D09F0120F0952311F00C948F010C9495014A
S11303E011240C94DA010E94B70170F3959FC1F3B4
S11303F0950F50E0551F629FF001729FBB27F00DCF
S1130400B11D639FAA27F00DB11DAA1F649F662723
S1130410B00DA11D661F829F2227B00DA11D621F72
S1130420739FB00DA11D621F839FA00D611D221F2C
S1130430749F3327A00D611D231F849F600D211D10
S1130440822F762F6A2F11249F5750409AF0F1F093
S113045088234AF0EE0FFF1FBB1F661F771F881FFC
S113046091505040A9F79E3F510580F00C948F01A4
S11304700C94DA015F3FE4F3983ED4F386957795C4
S11304806795B795F795E7959F5FC1F7FE2B880FA2
S1130490911D9695879597F908959F930E94570209
S11304A00F9007FCEE5F0C9480020C9495010E945F
S11304B0BF01D8F3E894E0E0BB279F57F0F02AEDA2
S11304C03FE049EC06C0EE0FBB0F661F771F881F85
S11304D028F0B23A62077307840728F0B25A620B15
S11304E0730B840BE3959A9572F7803830F49A95E0
S11304F0BB0F661F771F881FD2F790480C94960293
S1130500EF93E0FF07C0A2EA2AED3FE049EC5FEB7E
S11305100E94DB000E94A6010F90039401FC9058F6
S1130520E8E6F0E00C94A2029F3F31F0915020F4F1
S1130530879577956795B795880F911D96958795BB
S113054097F908959F938F937F936F93FF93EF93FE
S11305509B01AC010E94E001EF91FF910E94B60261
S11305602F913F914F915F910C94E001DF93CF93D2
S11305701F930F93FF92EF92DF927B018C0168949B
S113058006C0DA2EEF010E94F301FE01E894A59162
S11305902591359145915591A6F3EF010E94DB0019
S11305A0FE019701A801DA9469F7DF90EF90FF90BC
S11105B00F911F91CF91DF910895F894FFCF22
S9030000FC
