:100000000C9434000C943E000C943E000C943E0082
:100010000C943E000C943E000C943E000C943E0068
:100020000C943E000C943E000C943E000C943E0058
:100030000C943E000C943E000C943E000C943E0048
:100040000C943E000C943E000C943E000C943E0038
:100050000C943E000C943E000C943E000C943E0028
:100060000C943E000C943E0011241FBECFEFD8E04C
:10007000DEBFCDBF0E9440000C9478000C940000BD
:100080008FEF8AB980917A00806880937A0080919E
:100090007A00836080937A0080917C008E7F8093C9
:1000A0007C0080917C00806280937C0080917E0047
:1000B000816080937E000E946C0080917C00887F2C
:1000C00080937C000E946C008BB987EA91E60197CF
:1000D000F1F700C00000F6CF80917A008064809331
:1000E0007A0080917A0086FDFCCF80917900089596
:0400F000F894FFCFB2
:00000001FF
